{
  "contractName": "SimpleMessanger",
  "abi": [
    {
      "constant": false,
      "inputs": [
        {
          "name": "text",
          "type": "string"
        }
      ],
      "name": "addMessage",
      "outputs": [],
      "payable": false,
      "stateMutability": "nonpayable",
      "type": "function"
    },
    {
      "constant": true,
      "inputs": [],
      "name": "getMessages",
      "outputs": [
        {
          "name": "",
          "type": "string[]"
        }
      ],
      "payable": false,
      "stateMutability": "view",
      "type": "function"
    }
  ],
  "bytecode": "0x608060405234801561001057600080fd5b506104e8806100206000396000f3fe60806040526004361061004c576000357c0100000000000000000000000000000000000000000000000000000000900463ffffffff1680635ff6cbf3146100515780636a226a491461007c575b600080fd5b34801561005d57600080fd5b506100666100a5565b60405161007391906103b0565b60405180910390f35b34801561008857600080fd5b506100a3600480360361009e91908101906102cb565b61018e565b005b60606000805480602002602001604051908101604052809291908181526020016000905b82821015610185578382906000526020600020018054600181600116156101000203166002900480601f0160208091040260200160405190810160405280929190818152602001828054600181600116156101000203166002900480156101715780601f1061014657610100808354040283529160200191610171565b820191906000526020600020905b81548152906001019060200180831161015457829003601f168201915b5050505050815260200190600101906100c9565b50505050905090565b60008190806001815401808255809150509060018203906000526020600020016000909192909190915090805190602001906101cb9291906101d0565b505050565b828054600181600116156101000203166002900490600052602060002090601f016020900481019282601f1061021157805160ff191683800117855561023f565b8280016001018555821561023f579182015b8281111561023e578251825591602001919060010190610223565b5b50905061024c9190610250565b5090565b61027291905b8082111561026e576000816000905550600101610256565b5090565b90565b600082601f830112151561028857600080fd5b813561029b610296826103ff565b6103d2565b915080825260208301602083018583830111156102b757600080fd5b6102c283828461045b565b50505092915050565b6000602082840312156102dd57600080fd5b600082013567ffffffffffffffff8111156102f757600080fd5b61030384828501610275565b91505092915050565b600061031782610438565b808452602084019350836020820285016103308561042b565b60005b8481101561036957838303885261034b83835161037a565b92506103568261044e565b9150602088019750600181019050610333565b508196508694505050505092915050565b600061038582610443565b80845261039981602086016020860161046a565b6103a28161049d565b602085010191505092915050565b600060208201905081810360008301526103ca818461030c565b905092915050565b6000604051905081810181811067ffffffffffffffff821117156103f557600080fd5b8060405250919050565b600067ffffffffffffffff82111561041657600080fd5b601f19601f8301169050602081019050919050565b6000602082019050919050565b600081519050919050565b600081519050919050565b6000602082019050919050565b82818337600083830152505050565b60005b8381101561048857808201518184015260208101905061046d565b83811115610497576000848401525b50505050565b6000601f19601f830116905091905056fea265627a7a723058201a1dad4c173735733027862213544e946de8f4b7d296055b2f7f4c6b282c18f46c6578706572696d656e74616cf50037",
  "source": "pragma solidity ^0.5.0;\npragma experimental ABIEncoderV2;\n\n\ncontract SimpleMessanger {\n    string[] messages;\n\n    function addMessage(string memory text) public {\n       messages.push(text);\n    }\n\n    function getMessages() public view returns (string[] memory) {\n        return messages;\n    }\n}\n",
  "sourcePath": "/Users/professa/Desktop/dapp/contracts/SimpleMessanger.sol",
  "compiler": {
    "name": "solc",
    "version": "0.5.0+commit.1d4f565a.Emscripten.clang"
  },
  "schemaVersion": "3.0.9",
  "updatedAt": "2019-05-13T13:02:19.873Z",
  "devdoc": {
    "methods": {}
  },
  "userdoc": {
    "methods": {}
  }
}